:020000040800F2
:1000000038B001206D03000853260008552300086E
:1000100051260008F90700088B2F00080000000097
:10002000000000000000000000000000A90200081D
:100030000708000800000000050300081127000859
:100040008703000887030008870300088703000868
:100050008703000855260008870300088703000867
:100060008703000887030008870300088703000848
:100070008703000887030008870300088703000838
:100080008703000887030008A50600088703000807
:100090008703000887030008870300088703000818
:1000A00087030008870300080D280008870300085D
:1000B00087030008870300088703000887030008F8
:1000C00087030008870300088703000887030008E8
:1000D00087030008870300088703000887030008D8
:1000E00087030008870300088703000887030008C8
:1000F00087030008870300088703000887030008B8
:1001000087030008870300088703000887030008A7
:1001100087030008870300088703000819280008E0
:100120008703000887030008870300088703000887
:100130008703000887030008870300088703000877
:100140008703000887030008870300088703000867
:100150008703000887030008870300088703000857
:100160008703000887030008870300088703000847
:1001700087030008870300088703000800000000C9
:100180008703000887030008870300088703000827
:100190008703000887030008870300088703000817
:1001A0008703000887030008870300088703000807
:1001B00087030008870300088703000887030008F7
:1001C000870300088703000800F002F800F05CF8DD
:1001D0000AA090E8000C82448344AAF10107DA45A2
:1001E00001D100F051F8AFF2090EBAE80F0013F098
:1001F000010F18BFFB1A43F001031847AC4A000077
:10020000CC4A00000A444FF0000C10F8013B13F0F8
:10021000070408BF10F8014B1D1108BF10F8015B5F
:10022000641E05D010F8016B641E01F8016BF9D152
:1002300013F0080F1EBF10F8014BAD1C0C1B09D1A9
:100240006D1E58BF01F801CBFAD505E014F8016B1B
:1002500001F8016B6D1EF9D59142D6D370470000AD
:100260000023002400250026103A28BF78C1FBD8BF
:10027000520728BF30C148BF0B6070471FB504F05C
:10028000BBFC1FBD10B510BD00F0D2F91146FFF741
:10029000F5FF02F08DFE00F0F0F903B4FFF7F2FF76
:1002A00003BC00F0F7F900002D4B19680868B0E8AE
:1002B000F04F80F30988BFF36F8F4FF0000080F399
:1002C000118870470000000008480068006880F34B
:1002D00008884FF0000080F3148862B661B6BFF35F
:1002E0004F8FBFF36F8F00DF00BF00BF08ED00E04E
:1002F000DFF80C00016841F470010160704700BF35
:1003000088ED00E0EFF30980BFF36F8F144B1A689C
:100310001EF0100F08BF20ED108A20E9F04F10608A
:1003200009B44FF0500072B680F31188BFF34F8FBD
:10033000BFF36F8F62B603F023FF4FF0000080F32E
:10034000118809BC19680868B0E8F04F1EF0100F5A
:1003500008BFB0EC108A80F30988BFF36F8F704735
:100360002C000120EFF3058070470000094880470A
:1003700009480047FEE7FEE7FEE7FEE7FEE7FEE787
:10038000FEE7FEE7FEE7FEE704480549054A064B9F
:1003900070470000FD270008C901000838500120FF
:1003A00038B00120387001203870012053EA020C67
:1003B00000F069802DE9F04B4FF00006002B1FBFC5
:1003C000B3FA83F503FA05F424FA05F65E4012BF8A
:1003D0001643B2FA82F502FA05F4C5F120051EBFF4
:1003E00022FA05FC44EA0C04203556EA044C4FEA94
:1003F000144418BF641C4FF000084FF000099042ED
:1004000071EB030C39D3002919BFB1FA81F701FA56
:1004100007F6B0FA80F700FA07F6C7F120071EBF0B
:1004200020FA07FC46EA0C062037B6FBF4FCA7EBE3
:100430000507103F07F01F0BCBF120060CFA0BFB52
:100440002CFA06F644BFB3460026202FA4BF5E4612
:100450004FF0000B5BEA060C08BF4FF0010B19EBE5
:100460000B09ABFB027C48EB0608C01B06FB02CC69
:100470000BFB03CC71EB0C01C1E70B460246414676
:100480004846BDE8F08B13B54FF000004FF0000177
:10049000AFF30080BDE81C407047032A40F2308073
:1004A00010F0030C00F0158011F8013BBCF1020FB5
:1004B000624498BF11F801CB00F8013B38BF11F836
:1004C000013BA2F1040298BF00F801CB38BF00F84D
:1004D000013B11F0030300F02580083AC0F00880CA
:1004E00051F8043B083A51F804CBA0E80810F5E7AE
:1004F000121D5CBF51F8043B40F8043BAFF3008091
:10050000D20724BF11F8013B11F801CB48BF11F805
:10051000012B24BF00F8013B00F801CB48BF00F8D5
:10052000012B704710B5203AC0F00B80B1E818508D
:10053000203AA0E81850B1E81850A0E81850BFF4CD
:10054000F5AF5FEA027C24BFB1E81850A0E818506C
:1005500044BF18C918C0BDE810405FEA827C24BFC0
:1005600051F8043B40F8043B08BF7047D20728BF4E
:1005700031F8023B48BF11F8012B28BF20F8023B9D
:1005800048BF00F8012B704702F0FF0343EA032243
:1005900042EA024200F02CB84FF0000200B51346C8
:1005A00094469646203922BFA0E80C50A0E80C5093
:1005B000B1F12001BFF4F7AF090728BFA0E80C5044
:1005C00048BF0CC05DF804EB890028BF40F8042B3D
:1005D00008BF704748BF20F8022B11F0804F18BFAA
:1005E00000F8012B70477047704770474FF00002CA
:1005F0000429C0F0128010F0030C3FF4CFAFCCF10F
:10060000040CBCF1020F18BF00F8012BA8BF20F8A2
:10061000022BA1EB0C01FFF7C1BF5FEAC17C24BF35
:1006200000F8012B00F8012B48BF00F8012B7047A0
:10063000754600F02BF8AE4605006946534620F09B
:100640000700854618B020B5FFF79EFEBDE82040A4
:100650004FF000064FF000074FF000084FF0000B7E
:1006600021F00701AC46ACE8C009ACE8C009ACE831
:10067000C009ACE8C0098D46704710B50446AFF319
:1006800000802046BDE81040FFF707BE00487047D5
:10069000D44F012001491820ABBEFEE7260002001E
:1006A00070470000044810B500F0A4F9BDE8104000
:1006B000024800F09FB9000050010120980101207C
:1006C0004A496FF0706210B5D1F8043323F4403317
:1006D000C1F80433D1F8043344682343C1F8043328
:1006E00001684B6823F480734B60016803694C68B0
:1006F00044EA03234B6001684B6823F040734B606E
:10070000016884684B6823434B6001688B6823F45D
:1007100000638B600168C4688B6823438B60816AC7
:10072000D14201688A6822F070628A6001680DD047
:10073000836A8A681A438A6001688A6822F0405294
:100740008A600168C36A8A681A4302E08A6822F0F4
:1007500040528A6001688A6822F002028A60016859
:1007600082698B6843EA42028A6090F8201000296F
:10077000016811D01E4A4B6843F400634B60016866
:100780004B6823F460434B600168446A4B6802EB9A
:10079000443213434B6003E04A6822F400624A602B
:1007A0000168144BCA6A22F47002CA620168848B21
:1007B000CA6A03EB04531A43CA6201688A6822F4C6
:1007C00000728A60016890F830208B6843EA422208
:1007D0008A6001688A6822F480628A6001684069E0
:1007E0008A6842EA8020886010BD00000020014035
:1007F00000E0FFFF0000F0FFFEE703F061F90220D8
:1008000002F04EFCF9E7704770470000F8B500258C
:10081000009590F83C20012A1DD0012280F83C2050
:10082000604C0723D6070A68092A22D9B24220D091
:1008300007680A3A02EB420CFA6803FA0CF39A438F
:10084000FA600A68A24208D102680B7AD76847EAC0
:100850000363D36022E00220F8BD07680A3A8B6880
:1008600002EB4202D7F80CC0934043EA0C03FB6052
:1008700014E0076802EB4202D7F810C093402CEA5C
:10088000030CC7F810C003680F788A68D3F810C04B
:1008900007EB4707BA4042EA0C021A614A681F2375
:1008A000072A16D20768521E02EB820C7A6B03FAF3
:1008B0000CF39A437A6302680F790B887F1ED2F893
:1008C00034C09BB207EB8707BB4043EA0C0353637A
:1008D0002DE007680D2A15D2D21F02EB820C3A6B6D
:1008E00003FA0CF39A433A6302680F790B88FF1FEF
:1008F000D2F830C09BB207EB8707BB4043EA0C033A
:10090000136314E00D3A02EB820CFA6A03FA0CF35B
:100910009A43FA6202680F790B880D3FD2F82CC017
:100920009BB207EB8707BB4043EA0C03D3621E4A26
:100930000368934208D10B68B34205D1D2F804335F
:1009400023F44003C2F804330368934208D10B68D0
:10095000122B05D1D2F8043343F48003C2F80433D8
:10096000036893421AD10B68A34201D0112B15D111
:10097000D2F8043343F40003C2F804330968A142F7
:100980000CD10A490A4A0968B1FBF2F101EB810175
:10099000490000E0491E00910029FBD180F83C503D
:1009A0000020F8BD120000100020014028000120A6
:1009B00040420F0010B500680849094C884204D134
:1009C000084800F014F8208010BD07498842FBD188
:1009D0000448483000F00BF8608010BD0020014052
:1009E00000000120500101200021014070470068F3
:1009F000C06C704770B50446006801684268C1F376
:100A00004001C2F3401251B34AB3216CC90603D46A
:100A1000216C41F400712164816811F0405F17D1AD
:100A2000A169A9B9C16A11F4700F02D081684905A2
:100A30000ED4416821F020014160206C20F48070C8
:100A40002064206CC00403D4206C40F001002064BA
:100A50002046FFF7AFFF21686FF0120008602068A2
:100A600001684268C1F38001C2F3C01289B382B346
:100A7000216CC90603D4216C41F4005121648168C2
:100A800011F4401F1ED1816B11F4401F02D0816808
:100A9000490517D44168490514D4816811F0405FB5
:100AA00010D1A16971B9416821F080014160206CC9
:100AB00020F480502064206CC00503D4206C40F0EA
:100AC000010020642046FFF79FFE21686FF00C00B4
:100AD000086020680168436811F0010FC3F38011BA
:100AE0000ED069B10068C0070AD0206C40F4803095
:100AF0002064204600F046F821686FF0010008608D
:100B0000206801684268C1F340110029C2F3806285
:100B10000DD0002A0BD0616C6FF0200541F002016E
:100B2000616405602046FFF761FF2068056070BDC5
:100B300070B504004FF0000503D0206C002610B102
:100B400007E0012070BD204600F01EF8666484F8BE
:100B50003C60206CC00610D4206C20F4885040F01B
:100B6000020020642046FFF7ABFD6664206C20F095
:100B7000020040F00100206400E0012584F83C60A0
:100B8000284670BD7047000070B586B00446142139
:100B90006846FFF701FD204A0023256803241F4E05
:100BA000143A1D491E48B54211D10D6845F48075AF
:100BB0000D60096801F480710591116841F001012F
:100BC0001160116801F001010591082113E0154E33
:100BD000B5421ED10D6845F400750D60096801F439
:100BE00000710591116841F001011160116801F077
:100BF0000101059120210293CDE90014694600F01E
:100C00001FF900220521122000F098FA122000F0AE
:100C100087FA06B070BD0000443802400020014051
:100C2000000002400021014018B50021009190F819
:100C30003C20012A07D0012280F83C2002689368FA
:100C4000DB0702D011E0022018BD94682F4B44F05E
:100C5000010494602E4A1268B2FBF3F202EB4202E6
:100C600000E0521E0092002AFBD103689A68D20766
:100C700041D0026C40F20164A24342F480720264EB
:100C80005A68520505D5026C22F4005242F4805293
:100C90000264026CD20404D5426C22F00602426463
:100CA00000E041646FF022041A4A80F83C101C6096
:100CB000D2F80413C90607D0016891420AD18B68A3
:100CC00013F0405F02D005E000680BE08B6843F052
:100CD00080438B60D2F80413C90614D400680E490F
:100CE000884210D1816811F0405F0CD1816841F0D9
:100CF0008041816007E0016C41F010010164416CAA
:100D000041F001014164002018BD000040420F0085
:100D100028000120002001400022014038B50021B8
:100D2000009190F83C20012A07D0012280F83C2055
:100D300002689368DB0702D011E0022038BD946896
:100D4000314B44F001049460304A1268B2FBF3F274
:100D500002EB420200E0521E0092002AFBD103681F
:100D60009A68D20746D0026C40F20164A24342F472
:100D7000807202645A68520505D5026C22F4005252
:100D800042F480520264026CD20404D5426C22F018
:100D90000602426400E041646FF022051C4C1D4ACB
:100DA00080F83C101D6001684B6823434B60D2F80B
:100DB0000413C90607D0016891420AD18B6813F069
:100DC000405F02D005E000680BE08B6843F0804391
:100DD0008B60D2F80413C90614D400680E49884207
:100DE00010D1816811F0405F0CD1816841F08041E1
:100DF000816007E0016C41F010010164416C41F039
:100E000001014164002038BD40420F00280001204C
:100E100020000004002001400022014070B504467B
:100E200000F004F90546601C02D004480078044430
:100E300000F0FCF8401BA042FAD370BD1C0001205A
:100E40002DE9F84F00224FF001094FF0030A4FF04F
:100E50000F0E00BF0B6809FA02F42340A34270D1C1
:100E60004D68012D05D0022D03D0112D01D0122D7A
:100E700011D185685700CE680AFA07FC25EA0C05EF
:100E8000BE402E43866045680E79A543C6F3001622
:100E900096402E434660C56856008F680AFA06F4ED
:100EA000A543B7402F43C7604D68022D01D0122DD6
:100EB00012D1D5080F694FEA427C00EB8505AB469D
:100EC0002D6A4FEADC6C0EFA0CF807FA0CF725EAEB
:100ED00008052F43CBF820700D79076805F003054E
:100EE000A743B5403D4305604C68E40074D53D4CD4
:100EF000256845F480452560246822F0030796079D
:100F000004F480440094384C360F2744D7F808483E
:100F1000DFF8D8C00EFA06F5604524EA050401D1D1
:100F200000252EE0324DA84201D1012529E0314DA6
:100F3000A84201D1022524E02F4DA84202D1032569
:100F40001FE049E02D4DA84201D1042519E02C4DA8
:100F5000A84201D1052514E02A4DA84201D1062559
:100F60000FE0294DA84201D107250AE0274DA842EC
:100F700001D1082505E0264DA84201D1092500E050
:100F80000A25B540234E2543C7F808584D683468F4
:100F9000ED0324EA030400D51C431E4D34602D1DCF
:100FA0004E682C68B60324EA030400D51C43194E8E
:100FB0002C6008364D683468ED0224EA030400D53D
:100FC0001C43144D34600C354E682C68B60224EA7C
:100FD000030400D51C432C60521C102AFFF43AAFC6
:100FE000BDE8F88F44380240003001400000024064
:100FF0000004024000080240000C024000100240C1
:101000000014024000180240001C02400020024070
:1010100000240240003C01400069084000D001204B
:1010200070470AB1816170470904FBE70148806895
:10103000704700001C0001200248816802781144BA
:10104000816070471C000120032010B500F096F865
:101050000F2000F005F800F03DF8002010BD000062
:1010600010B5002201461A2088B000F067F81A2057
:1010700000F056F81348016841F4802101600068CF
:1010800005A900F480200690684600F073FC00F08B
:10109000A1FC0D49400000220C4CB0FBF1F10C48C2
:1010A00040F2E7330460C0E90332491EC0E901128F
:1010B00000F0E8FE10B1012008B010BD044800F0B7
:1010C00031FFF9E74438024040420F000048014038
:1010D000B4060120114808B5016841F08051016053
:1010E000006800F0805000900C48001D016841F439
:1010F00080410160006800220F2100F480400090D0
:10110000901E00F01BF805210022084600F016F89A
:10111000BDE80840052000F003B800004038024058
:10112000002809DB410900F01F028900012001F1BC
:10113000E0219040C1F80001704700000E4BF0B470
:101140001B680D46C3F30223C3F10706042E00D922
:101150000426191D072901D2002300E0DB1E01240B
:1011600004FA06F19C40491E2940641E994014402F
:101170002143F0BC01F00ABF0CED00E0064900F08D
:10118000070210B54FF6FF040868044B204040EA00
:1011900002201843086010BD0CED00E00000FA05C5
:1011A00001680123C0F8FC33002280F8F423886929
:1011B000044A40F000608861486D10434865002093
:1011C00070470000030000102DE9F04104008AB0D0
:1011D00005D094F8BD030025266820B108E0012061
:1011E0000AB0BDE8F081204684F8BC5300F066F8F0
:1011F000032084F8BD03F06BC00500D4256120688E
:1012000001F084FE04F11001684628228846FFF7A9
:1012100089F994E80F0001F05BFD0227D8BB206834
:10122000002101F09BFE0020012610E0C0EBC00170
:10123000421C04EB810181F83D6081F83F504D6410
:101240008D640D6581F83C00A1F84200D0B2616860
:101250008142EBD8002011E0C0EBC001421C04EB3E
:10126000810181F8FD5181F8FF51C1F80452C1F8A4
:101270000852C1F8105281F8FC01D0B26168814275
:10128000EAD8282241466846FFF74CF994E80F0057
:1012900001F07EFD10B184F8BD73A0E7606A84F8A8
:1012A000385084F8BD63012802D12046FFF778FF4B
:1012B000206801F05FFD002092E7000030B587B0A4
:1012C000044614216846FFF767F92068B0F1A04F83
:1012D00033D11B48016841F001010160006800241E
:1012E0000221184D00F0010005904FF4E8500A2348
:1012F0008DE8130003226946CDE903232846FFF752
:101300009FFD68156946CDE9000428460294FFF761
:1013100097FD0B48001D016841F0800101600068E5
:1013200000F08000059006481430016841F48041C7
:101330000160006800F48040059007B030BD0000F7
:1013400030380240000002402DE9F84F0446007892
:10135000DFF824944FF000063746C0070ED0D9F8C6
:10136000001021F40001C9F80010D9F80010626BD8
:101370001143C9F80010606B00B90126FE4D2068CA
:10138000843500030ED5E16B286820F44010084333
:101390002860E06BB0F5801F01D010B102E001269B
:1013A00000E0012720684FF4800BC0020CD5216CAF
:1013B000286820F4400008432860206C584501D17B
:1013C000012601E000B901272068C10100D50126EE
:1013D000800666D5E8483830016841F080510160E8
:1013E0000068DFF898A300F080500090DAF8001051
:1013F00041F48071CAF80010FFF718FE804605E03E
:10140000FFF714FEA0EB080064287DD8DAF800008E
:10141000C005F5D5DFF8608308F16808D8F800004A
:1014200010F440702AD0218E01F44071814225D001
:10143000D8F80010D8F8002021F4407142F480322E
:10144000C8F80020D8F8002022F48032C8F8002024
:10145000C8F80010D8F80000C0070FD0FFF7E6FD6D
:10146000824607E0FFF7E2FDA0EB0A0141F2883077
:101470008142CAD8D8F800008007F3D5206BC0F3AA
:10148000012103297ED0D9F8001021F4F811C9F800
:101490000010228ED8F80010C2F30B021143C8F8D6
:1014A00000102078C00607D5286820F080702860DA
:1014B0002868A16B084328602188AF488830490418
:1014C00005D5626E016821F4403111430160218825
:1014D000090405D5A26E016821F440211143016081
:1014E0002168C90305D5E26E016821F4401111435A
:1014F00001602168890305D5226F016821F440014C
:1015000011430160217800E016E1490605D5626CBF
:10151000016821F00301114301602178090605D516
:10152000A26C016821F00C01114301602188C905FA
:1015300005D5E26C016821F030011143016021887A
:10154000890505D5226D016821F0C00111430160B4
:101550002188490505D5626D016821F44071114368
:1015600001602188090505D5A26D016821F440615B
:10157000114301602188C90407D5E26D016821F497
:10158000405100E04AE0114301602188890405D5FB
:10159000226E016821F44041114301602168490233
:1015A00005D5A26F016821F08061114301602168B7
:1015B0004FF0006A890209D5E26F016821F00061ED
:1015C00011430160E16F514500D1012721680A07ED
:1015D00000D50127490305D5626F016821F04071EC
:1015E000114301602168090206D5D4F88020016802
:1015F00021F0805111430160DFF88491012E02D067
:10160000206880017ED5D9F800004E4620F0806029
:10161000C9F80000FFF70AFD80460FE0594AD9F8E3
:101620000030104023F4F8120243C9F8002030E7DC
:10163000FFF7FCFCA0EB080064287DD830680001AF
:10164000F6D421784C487C30C90712D0616B81B93F
:10165000237A62680168D0F800C09201C1F30141A9
:1016600042EA0142CCF3036142EA016141EA0371BB
:10167000016021680A0303D5E26BB2F5801F04D034
:10168000C9021AD5216C594517D16368016894F8CD
:101690000CC002689B01C1F3014143EA0141C2F35E
:1016A000027241EA0C6141EA027101602968626AD2
:1016B00021F01F01521E114329602168C90110D574
:1016C000238A62680168D0F800C09201C1F3036107
:1016D00042EA034242EA0162CCF3027142EA01713A
:1016E0000160216889010CD56168228A237B94F806
:1016F00008C0890141EA024141EA036141EA0C71F3
:10170000016000E011E03168B04641F08061316075
:10171000FFF78CFC064604E0FFF788FC801B64287A
:101720000AD8D8F800000001F6D56FB3D9F8000048
:101730004E4620F0805000E07BE0C9F80000FFF743
:1017400075FC074605E000BFFFF770FCC01B64286E
:101750006FD83068C0438000F6D5074821688030D4
:101760000A0301D5E26B1AB1C90225D5216C19BB58
:1017700063690168277E08E0083802400070004075
:1017800000380240FFFCFF0F5AE00268C1F301413C
:101790009B0143EA0143C2F3027143EA076242EA52
:1017A0000171016029686FF0FF03A26A21F4F8510A
:1017B00003EB0222114329602168890212D5E16FEF
:1017C00051450FD1238C6269016807689201C1F30A
:1017D000036142EA034242EA0162C7F3027142EA4C
:1017E000017101602178090716D561690268D0F896
:1017F00000C08B01277FC2F30362CCF3014143EAAF
:10180000014141EA026141EA077101602868E16A29
:1018100020F4403008432860306840F08050306049
:10182000FFF704FC044607E0FFF700FC001B6428F8
:1018300002D90320BDE8F88F3068C0438000F3D49C
:101840000020F7E72DE9F04705000F4663D0444E2E
:10185000306800F00F00B84209D2306820F00F0065
:1018600038433060306800F00F00B84253D1286828
:101870003C4C810712D5400703D5206840F4E05066
:1018800020602878000703D5206840F4604020607D
:10189000A968206820F0F000084320602878C0077D
:1018A0002AD0304968680839012810D00968022810
:1018B00010D0890700292EDA216821F003010143A5
:1018C0002160FFF7B3FB804641F288390DE00968DB
:1018D0008903EFE78901EDE7FFF7A8FBA0EB08011B
:1018E000494502D90320BDE8F0876868216801F006
:1018F0000C01B1EB800FEFD1306800F00F00B8425F
:101900000BD9306820F00F0038433060306800F0A9
:101910000F00B84201D00120E5E72878400705D53F
:10192000E968206820F4E050084320602878000728
:1019300006D52869216821F4604141EAC000206091
:1019400000F058F82168084AC1F30311515CC840FF
:101950000649086006480068FFF782FB0020C2E7DE
:10196000003C024008380240704C0008280001206A
:10197000200001200D4A0F2330B503604FF4E054DE
:101980000B4B156805F003054560156805F0F0057B
:101990008560156805F4E055C560126804EAD20256
:1019A0000261186800F00F00086030BD083802407E
:1019B000003C02400449054809680068044AC1F334
:1019C0008221515CC840704708380240280001203D
:1019D000804C00080449054809680068044AC1F3BE
:1019E0004231515CC840704708380240280001204D
:1019F000804C0008154910B51548096811F00C0213
:101A000013D04110042A0FD0082A0ED10F4C241FE6
:101A10002268236802F03F025B0207D52068C0F30A
:101A20008810A0FB010106E0084610BD2168C1F343
:101A30008811A1FB00010023FEF7B8FC2168C1F367
:101A40000141491C4900B0FBF1F010BD08380240CB
:101A50000024F4002DE9F84F04004FF000076ED089
:101A60002078DFF868A3AAF10408C007A8F10405EC
:101A70004CD0DAF800105046C1F38101012908D09A
:101A80000068C0F3810002280AD1D8F800004002A3
:101A900006D52868800339D560680028DFD035E096
:101AA0006068B0F5803F0BD010B1B0F5A02F11D019
:101AB000286820F480302860286820F4802002E024
:101AC000286840F480302860606890B1FFF7AEFA73
:101AD00006460AE0286840F480202860F0E700BF4E
:101AE000FFF7A4FA801B642872D828688003F7D512
:101AF0000CE0FFF79BFA064605E000BFFFF796FAF9
:101B0000801B6428F0D828688003F7D420788007E9
:101B100042D5DAF80010504611F00C0F08D00068DA
:101B2000C0F3810002280BD1D8F80000400207D48E
:101B30002868800718D5E068012800D114E041E149
:101B4000E0680028286817D040F001002860FFF7FF
:101B50006DFA064605E000BFFFF768FA801B022811
:101B6000C2D828688007F7D52069296821F0F801D4
:101B700041EAC00028600FE020F001002860FFF774
:101B800055FA064605E000BFFFF750FA801B022811
:101B90001ED828688007F7D42078000729D58B48FD
:101BA00061696C3000298146016812D041F0010161
:101BB0000160FFF73BFA064605E000BFFFF736FA83
:101BC000801B022804D8D9F800008007F6D510E061
:101BD00089E021F001010160FFF728FA064604E0E0
:101BE000FFF724FA801B02287DD8D9F8000080076F
:101BF000F6D4207840076BD5DFF8D09109F1380989
:101C0000D9F80000C0000BD4D9F8001041F0805181
:101C1000C9F80010D9F80000012700F080500090AA
:101C20006B480168C90512D40168834641F480718C
:101C30000160FFF7FBF9064605E000BFFFF7F6F984
:101C4000801B64284FD8DBF80000C005F6D55F4E36
:101C5000A068683601280AD008B1052811D030687C
:101C600020F001003060306820F0040002E03068AD
:101C700040F001003060A068A0B1FFF7D7F98346BB
:101C80000CE0306840F004003060F0E7FFF7CEF978
:101C9000A0EB0B0141F28830814266D830688007A2
:101CA000F4D50EE0FFF7C2F9834607E0FFF7BEF96F
:101CB000A0EB0B0141F28830814256D83068800792
:101CC000F4D42FB1D9F8001021F08051C9F80010D8
:101CD000A069C8B3DAF80010C1F3810102294BD022
:101CE0000228286800E040E020F08070286003D0DF
:101CF000FFF79CF904463BE0FFF798F9064604E03D
:101D0000FFF794F9801B02282FD828688001F7D4A8
:101D1000D4E90962D4E907012E4B570894F82C2026
:101D2000084303EB074343EA8611084340EA026095
:101D300040F00050C8F80000286840F0807028602B
:101D4000FFF774F9044606E03EE000BFFFF76EF9C6
:101D5000001B022809D828688001F7D534E000BFAD
:101D6000FFF764F9001B022802D90320BDE8F88FB1
:101D700028688001F4D427E00128D8F8000021D099
:101D8000E16900F480028A421CD1216A00F03F021E
:101D90008A4217D1626A47F6C0710140B1EB821FD7
:101DA00010D1A16A4FF0FF3200F4403302EB510131
:101DB000B3EB014F06D194F82C1000F07060B0EB3B
:101DC000016F01D00120D1E70020CFE708380240A1
:101DD000007000400000FFFF704770477047000030
:101DE000F0B590F83C20012A3BD01F4E012480F82A
:101DF0003C40022280F83D2002681C4D5368B242EC
:101E0000D2F808C001D0AA4203D14F6823F470036E
:101E10003B430F6823F070031F4357600268B242D0
:101E200013D0B2F1804F10D0114B9A420DD0114B0C
:101E30009A420AD0104B9A4207D0AA4205D00F4BC3
:101E40009A4202D00E4B9A4204D189682CF080034A
:101E500019439160002180F83D4080F83C1008460D
:101E6000F0BD0220F0BD0000000001400004014070
:101E70000004004000080040000C00400040014009
:101E80000018004010B5040003D094F83D0010B1D4
:101E900007E0012010BD002084F83C00204600F03F
:101EA00023F8022084F83D002068211D00F0BAFCD0
:101EB000012084F8480084F83E0084F83F0084F84C
:101EC000400084F8410084F8420084F8430084F81C
:101ED000440084F8450084F8460084F8470084F8FC
:101EE0003D00002010BD000008B500680B49884285
:101EF00012D10B48016841F0200101600068002206
:101F0000052100F0200000903720FFF717F9BDE809
:101F100008403720FFF704B908BD00000014004056
:101F20004038024090F83D10012901D0012070474F
:101F3000174A022180F83D100168CB6843F0010385
:101F4000CB600068904214D0B0F1804F11D011499D
:101F500088420ED0104988420BD01049884208D0E0
:101F60000F49884205D00F49884202D00E49884265
:101F700007D181680D4A1140062906D0B1F5803F8E
:101F800003D0016841F001010160002070470000AA
:101F9000000001400004004000080040000C004028
:101FA000000401400040014000180040070001000B
:101FB000704770B50446006800250169C943890768
:101FC00015D4C168C943890711D4EA1E02610121F1
:101FD0002177206880698007204602D0FFF7E8FF5C
:101FE00004E000F0A7F8204600F0A5F82577206867
:101FF0000169C943490717D4C168C943490713D4C4
:1020000002216FF00402026121772068806910F4D8
:10201000407F204602D0FFF7CBFF04E000F08AF8B3
:10202000204600F088F8257720680169C943090730
:1020300016D4C168C943090712D404216FF00802FD
:10204000026121772068C0698007204602D0FFF72F
:10205000AFFF04E000F06EF8204600F06CF8257742
:1020600020680169C943C90617D4C168C943C906B4
:1020700013D408216FF01002026121772068C06933
:1020800010F4407F204602D0FFF792FF04E000F0FA
:1020900051F8204600F04FF8257720680169C943C0
:1020A000C90708D1C168C943C90704D1891E0161A4
:1020B000204600F041F820680169C943090609D4A7
:1020C000C168C943090605D46FF08001016120464B
:1020D000FFF783FE20680169C943C90509D4C168B7
:1020E000C943090605D46FF4807101612046FFF7EA
:1020F00073FE20680169C943490609D4C168C94310
:10210000490605D46FF040010161204600F01EF839
:1021100020680169C94389060BD4C168C94389068F
:1021200007D46FF0200101612046BDE87040FFF741
:1021300055BE70BD7047704700680349884201D1A1
:10214000FEF77ABF7047000000480140704710B5A5
:10215000040002D0A06F10B107E0012010BD0020E4
:1021600084F87400204600F025F82420A067206839
:10217000016821F001010160204600F03DFC0128CA
:10218000ECD0606A10B1204600F0B2FB20684168D4
:1021900021F4904141602068816821F02A0181602A
:1021A0002068016841F0010101602046BDE810404F
:1021B00000F002BC10B586B0044614216846FEF754
:1021C000EBF91249206888421ED11148016841F498
:1021D00080210160006800F4802005900C481038D0
:1021E000016841F00801016000680221002200F04E
:1021F00008000590032307244FF440708DE81F006A
:1022000004486946FEF71CFE06B010BD00480040B9
:1022100040380240000C02401248042110B5FEF77D
:10222000FBFE114948714A7A50EA020307D001289F
:1022300004D1012A02D100204870487210BD4878AC
:10224000401CC0B248700A28F8D9084801224A72D6
:102250000178491E017001780329EFD8032101702C
:1022600010BD00000004024041010120A400012033
:102270000E48102110B5FEF7CFFE0D4988718A7AFD
:1022800050EA020307D0012804D1012A02D100201C
:102290008870887210BD8878401CC0B2887005288C
:1022A000F8D9044A01201070F3E70000000402404E
:1022B00041010120400101200D48202110B5FEF709
:1022C000ABFE0C490022C871CB7A50EA030406D059
:1022D000012803D1012B01D1CA70CA7210BDC87880
:1022E000401CC0B2C8700528F8D903480270F4E752
:1022F0000004024041010120400101201248022156
:1023000010B5FEF789FE114908710A7A50EA0203F6
:1023100007D0012804D1012A02D1002008700872D8
:1023200010BD0878401CC0B208700A28F8D90848C7
:1023300001220A720178491C017001781229EFD339
:102340001221017010BD0000000402404101012073
:10235000A4000120FEE700007FB5144800241249C4
:102360000125009401940294039401604460846008
:10237000856104610E4980F82040C0E90A14C561F6
:10238000C46080F830404561FEF7D2FB00B1FEE743
:1023900003206946CDE9000504480294FEF736FAA9
:1023A000002800D0FEE77FBD002001405001012041
:1023B0000100000F7FB51448002412490125009444
:1023C0000194029403940160446084608561046117
:1023D0000E4980F82040C0E90A14C561C46080F845
:1023E00030404561FEF7A4FB00B1FEE705206946D9
:1023F000CDE9000504480294FEF708FA002800D051
:10240000FEE77FBD00210140980101200100000F7F
:102410002DE9F04F87B014216846FEF7BDF85D48FE
:10242000016841F004010160016801F004010591B7
:10243000016841F020010160016801F0200105916F
:10244000016841F080010160016801F0800105919F
:10245000016841F001010160016801F0010105918D
:10246000016841F002010160016801F0020105917B
:10247000016841F008010160016801F0080105915F
:10248000016841F040010160006840F2FF76DFF82A
:102490000881002200F04000314605904046FEF7DA
:1024A000C0FDDFF8F8B040F27F17002239465846E9
:1024B000FEF7B7FD44F2010A394800225146FEF703
:1024C000B0FD384800224021FEF7ABFD002436481D
:1024D0004FF40059CDF800906946CDE90104584603
:1024E000FEF7AEFC01250096CDE901546946404651
:1024F0000394FEF7A5FC00976946CDE901545846C0
:102500000394FEF79DFC02264FF00B0886206946D7
:1025100002AACDE900060327244882E89001FEF7CD
:102520008FFCCDF800A06946CDE901541C48039406
:10253000FEF786FC362069468DE831001848FEF724
:102540007FFC02AA1648694682E89001CDE9009610
:10255000FEF776FC40200090CDE901541148694611
:102560000394FEF76DFC80206946CDE900040D4818
:102570000294FEF765FC4FF420510A4802AACDE907
:102580000016694682E89001FEF75AFC07B0BDE8E4
:10259000F08F000030380240001402400008024072
:1025A0000004024000180240000011100000024028
:1025B0000C48002110B50A4C0C224FF4E1330460A2
:1025C000C0E90131C160C0E904128161C1610162E9
:1025D0004162FFF7BCFD002800D0FEE710BD0000FF
:1025E000004800402C0201200B48002170B5022257
:1025F000C0E90321012382610624C0E90731416259
:102600004FF0A045C0E90B31C0E90054FEF7DCFDF6
:10261000002800D0FEE770BDB0020120084C002069
:10262000084D094E094F2070207820B12A88318842
:10263000387801F0F3FA012000F032FDF4E70000F1
:1026400040010120A8000120A6000120A4000120D3
:10265000FEE7FEE7704700002DED028B274C294D69
:10266000294EDFED258A9FED268AA0882188401A11
:10267000032804DC2088A188401A032808DD20886C
:1026800000EE100AB8EE400AC0EE280AC4ED020AB5
:10269000E0886188401A032804DC6088E188401AD9
:1026A000032808DD608800EE100AB8EE400AC0EE8C
:1026B000280AC4ED030A94ED020A20EE080ABCEED3
:1026C000C00A10EE100A288094ED030A20EE080AD2
:1026D000BCEEC00A10EE100A30802088A08020884E
:1026E000E080032000F0DCFC0848FEF717FB0748F9
:1026F0004830FEF713FBB8E700C07F45000001201B
:102700000000FA44A6000120A80001205001012089
:10271000502010B572B680F31188BFF34F8FBFF30E
:102720006F8F62B602F0BAF818B104494FF08050CA
:102730000860002080F3118810BD000004ED00E067
:10274000F0B5B3B0302121A8FDF726FF14212DA844
:10275000FDF722FF84216846FDF71EFF244801682B
:1027600041F080510160006800F0805032902148B3
:10277000016821F4404141F4804101600068022178
:102780000DF19C0C00F4404032904D050426482782
:102790004FF4A0228CE8E20003201024CDE92102AE
:1027A000CDE92B100123CDE9243421A8FFF752F9FC
:1027B00000B1FEE700240F204FF48052CDE92D0434
:1027C0004FF4A0512F94CDE930122DA82146FFF7E8
:1027D00039F800B1FEE7084813941F94009068464A
:1027E000FEF7B2FD002800D0FEE733B0F0BD0000D8
:1027F000403802400070004000012000024801689B
:1028000041F470010160704788ED00E00148FFF776
:10281000D0BB0000B40601200148FFF7CABB00008E
:10282000E0010120F0B5274B4FF0804E264D0268A5
:102830009842264E264F274C09D0704507D0A84213
:1028400005D0B04203D0B84201D0A04205D1D1F8A2
:1028500004C022F070024CEA020298421BD070457C
:1028600019D0A84217D0B04215D0B84213D0A04218
:1028700011D0194DA8420ED0184DA8420BD0184DBA
:10288000A84208D0174DA84205D0174DA84202D043
:10289000164DA84203D1CD6822F440722A434D69F7
:1028A00022F080022A43026098428A68C2620A6863
:1028B000826201D0A04201D1096901630121416115
:1028C000F0BD00000000014000040040000800408E
:1028D000000C004000040140004001400044014061
:1028E0000048014000180040001C0040002000404B
:1028F00090F82410C90706D00168836A4A6822F458
:1029000000321A434A6090F82410890706D50168FE
:10291000C36A4A6822F480321A434A6090F824104D
:10292000490706D50168036B4A6822F480221A43DE
:102930004A6090F82410090706D50168436B4A687D
:1029400022F400421A434A6090F82410C90606D5C2
:102950000168836B8A6822F480521A438A6090F877
:102960002410890606D50168C36B8A6822F40052D8
:102970001A438A6090F82410490611D50168036C47
:102980004A6822F480121A434A60016CB1F5801F34
:1029900006D10168436C4A6822F4C0021A434A60B7
:1029A00090F82410090606D50168826C486820F466
:1029B000002010434860704738B500250446C0F831
:1029C0008050FEF733FB03462068006800070BD5F4
:1029D0006FF07E400090002220464FF4001100F07E
:1029E00025F908B1032038BD2020A067E0672566DF
:1029F000002084F8745038BD2DE9F0410446036886
:102A0000C2698168D4E90450DFF8F4C17D4E2943DE
:102A10001F68002510437C4A014307EA0C070F4357
:102A20001F604FF400402168E7684B6823F440536F
:102A30003B434B602768A369216AD7F808C0194354
:102A40002CF430630B43BB602168B1420AD111689A
:102A500011F0030152D001297CD0022971D0032941
:102A60006ED184E0694B99420AD1116811F00C01D2
:102A700067D0042965D0082975D00C2960D176E08B
:102A8000634B99420AD1116811F0300159D01029D5
:102A90006BD0202967D0302952D168E05D4B994234
:102AA0000AD1116811F0C0014BD040295DD08029B6
:102AB00059D0C02944D15AE0574B99420DD11168E1
:102AC00011F440713DD0B1F5807F4ED0B1F5007F5B
:102AD00049D0B1F5407F33D149E0504B99420FD1F5
:102AE000116811F4406109D0B1F5806F3DD0B1F5A6
:102AF000006F38D0B1F5406F22D138E0012120E0DD
:102B0000474B99420DD1116811F4405119D0B1F5DC
:102B1000805F2AD0B1F5005F25D0B1F5405F0FD1BD
:102B200025E0404B99420BD1116811F4404108D087
:102B3000B1F5804F19D0814215D0B1F5404F16D074
:102B40001021E369384A4FF6EF7683422FD10929E5
:102B50004BD201E009E006E0DFE801F00B0E11477F
:102B60001347474716000221EBE70421E9E7082154
:102B7000E7E7FEF71FFF06E0FEF72CFF03E0104635
:102B800002E0FEF737FF88B36168400000EB5100B8
:102B9000B0FBF1F080B2A0F11001B14225D84FF6A0
:102BA000F0732168C0F342021840104320E0092965
:102BB0001BD2DFE801F005080B1A0D1A1A1A1000D3
:102BC000FEF7F8FE06E0FEF705FF03E0104602E020
:102BD000FEF710FF50B1616800EB5100B0FBF1F05F
:102BE00080B2A0F11001B14201D9012501E02168B4
:102BF000C86000206066A0662846BDE8F08100003D
:102C0000F369FFEF0010014090380240004400409B
:102C100000480040004C00400050004000140140BB
:102C200000780040007C00400024F4002DE9F047CB
:102C30009A4617460E460446089D4FF000094FF08D
:102C4000200839E0681C37D0FEF7F0F9A0EB0A0045
:102C5000A84222D80DB32068016849072CD5C06965
:102C6000C043000528D423684FF40061196221682D
:102C70000B6823F4D0730B6021688B6823F0010389
:102C80008B60C4F87880C4F87C80C4F8808000BF72
:102C9000032084F87490BDE8F08721680B6823F462
:102CA000D0730B6021688B6823F001038B60C4F83C
:102CB0007880C4F87C80EBE72068C06936EA0000C1
:102CC00004D00020B842BDD00020E4E70120F9E79D
:102CD00070B504460698049D0D99012815D0E0684A
:102CE00040F04000E060204600F028F8A16B41F47D
:102CF0008031A163012D07D1A16841F00601A160D7
:102D0000A16841F02001A16070BDA06B01290A4AB1
:102D100020F48030A063E06800EA0200E060E06830
:102D200020F44010E06003D1E06840F48010E060DF
:102D3000204600F003F8DDE7BFFFBDFF0C4901228C
:102D400002E0521C8A420BD80369002BF9DA0369AE
:102D5000012243F00103036104E0521C8A4201D9BD
:102D6000032070470369DB07F7D10020704700009C
:102D7000400D0300D0F8001E21F00301C0F8001E32
:102D8000D0F8041841F00201C0F804180020704780
:102D90002DE9F04F0E4604460021DDF824B00D4623
:102DA000109F0846DDF82C2004EB800CCCF80411B1
:102DB000401C0F28F8D32046B7B1806B40F4001CAC
:102DC000C4F838C088460846C4F8000E2046D4F837
:102DD0000018012AC4F8001839D0032A37D0D0F8D7
:102DE000001841F0030117E0D0F8040840F0020C8D
:102DF000C4F804C8A06B20F4001CC4F838C02068D4
:102E000040F0400CC4F800C0206840F0800CC4F8CA
:102E100000C0D7E741F00101C0F80018102100F010
:102E20008BF800B10125204600F076F800B10125AD
:102E300040464FF000694FF67F334FF0904AC4F898
:102E40001088C4F81488C4F81C88002119E0D0F850
:102E50000018002BE0D0DDE704EB4112D2F800C9E6
:102E6000BCF1000F06DA11B1C2F800A904E0C4F801
:102E7000009901E0C2F80009C2F81009C2F8083947
:102E8000491C8E42E8D8002115E000BF04EB411236
:102E9000D2F800CBBCF1000F06DA11B1C2F800ABDA
:102EA00004E0C4F8009B01E0C2F8000BC2F8100B6C
:102EB000C2F8083B491C8E42E8D8D4F81038BBF160
:102EC000000F6FF0804223F48073C4F81038A061C3
:102ED000626103D1A06940F01000A061A069094AB5
:102EE0000C9940EA0200A06119B1A06940F0080005
:102EF000A061012F03D1A06903490843A0612846BE
:102F0000BDE8F08F00383C8004000040816821F06B
:102F10000101816000207047064A102101610021F3
:102F2000491C914201D9032070470369DB06F7D49D
:102F300000207047400D03002023074A43EA811315
:102F400003610021491C914201D9032070470369A4
:102F50009B06F7D400207047400D030010B5C268EF
:102F6000012922F0C042C26002D029B1012010BD67
:102F7000C16841F0005102E0C16841F08041C16088
:102F80003220FDF74BFF002010BDFEE709070028A7
:102F90004FEA116104DB00F1E02080F80014704773
:102FA00000F00F0000F1E02080F8141D70470000D1
:102FB0000EB5BFF34F8FBFF36F8F3048002404600E
:102FC000BFF34F8FBFF36F8F2D48016841F400317D
:102FD0000160BFF34F8FBFF36F8FFEF735F8FFF738
:102FE000AFFBFFF715FAFFF7B7F9FFF7E1FA26484D
:102FF00040F2CF710F22009401940294C0E9024183
:10300000204B8461C0E90032FEF73CFF00B1FEE7CF
:103010001D48694600940294FEF7E2FE00B1FEE707
:10302000FFF7E2FAFFF7C6F917489038FDF7FCFD05
:1030300015484838FDF7F8FD13489038FDF76EFE47
:1030400011484838FDF76AFE00F044F80F4A0021A5
:103050000F4800F07BF80F4C00210C4A243220610D
:103060000D4800F073F8094A002160610B484832AE
:1030700000F06CF8A06100F049F8FEE750EF00E0C6
:1030800014ED00E000140040E0010120044C0008B1
:103090005926000800000120FB0700081D26000833
:1030A00010B5EFF3058181B9EFF3108111B9EFF39A
:1030B000118119B106490968022906D04FF00004B0
:1030C00008B100F09FFF204610BD6FF00504FAE73D
:1030D0007C000120EFF3058070B9EFF310800A49FE
:1030E0000028086802D1EFF311820AB1022803D048
:1030F00028B14FF0FF3070476FF005007047012294
:103100000A600020704700007C00012010B5EFF33A
:10311000058078B9EFF310800B490028086802D1C8
:10312000EFF311820AB1022804D0012805D04FF034
:10313000FF3010BD6FF0050010BD0220086000F0E8
:10314000CFFF002010BD00007C0001202DE9FF41D1
:103150004FEA01034FF00005EFF305810395B1BB82
:10316000EFF3108111B9EFF3118119B1204909680A
:1031700002293BD058B34FF080074FF018014FF0B1
:1031800000044AB3166806B1344696691EB131464A
:10319000761E382E02D21679F60703D0002004B02E
:1031A000BDE8F081566906B1B708D2F808C0BCF195
:1031B000000F0DD0D5685C2D18D312693AB136B125
:1031C0008DE806103A46214601F025FB03900DE0FC
:1031D000D6685EB912694AB903AACDE90012BAB23B
:1031E000214601F0EBFA012800D003950398D6E7B9
:1031F0007C0001202DE9F041134C0F46054666691D
:103200002068001D00F0BEFD681C07D137B12168A1
:10321000BDE8F0410D48091D00F006BE20683544A8
:10322000B5424560216805D2A068091DBDE8F0419E
:1032300000F0E2BD6068091D00F0DEFD206B8542F4
:1032400000D22563BDE8F0812C000120F00B0120A5
:103250002DE9F041054600F0F3FD2D4C2D4F20697E
:10326000401C2061206810B1E06930B32BE025607C
:103270002069012827D1002606EB860007EB800095
:1032800000F0ACFD761C382EF6D3234800F0A6FDE6
:103290002148143000F0A2FD1F48283000F09EFDA8
:1032A0001D483C3000F09AFD1B48503000F096FD60
:1032B000194860601430A06005E0E86A2168C96AB6
:1032C000814200D82560E06A401CE0626864E86AD8
:1032D000A169884200D9A06100EB8000291D07EB9D
:1032E000800000F0A1FD00F0CFFDE06900280CD0C7
:1032F0002068E96AC06A884207D208494FF08050C6
:103300000860BFF34F8FBFF36F8FBDE8F0810000FF
:103310002C00012040070120A00B012004ED00E05B
:1033200038B500F08DFD104CA068C8B90F4800F00A
:1033300055FD0E48143000F051FD0C49002021606D
:103340001431616001F11403009001F16402102155
:103350000A2000F0A9FFA06010B105A100F01CFE3A
:10336000BDE8384000F090BD68000120040C012049
:10337000546D72510000000030B4026C0B46002AFC
:103380000BD0D0E902411144C160A14201D30168D0
:10339000C160184630BCFDF780B830BC70472DE9DD
:1033A000F041856B1746026C0446002682B1C7B116
:1033B000E068FDF772F8E168206C2268091AE160A4
:1033C000914202D2A168081AE060022F16D017E0DD
:1033D0002068A8B9A06801F0C7FA06460020A060DE
:1033E0000EE06068FDF759F8D4E90101226C104441
:1033F0006060884204D32068606001E005B16D1E02
:103400006D1CA5633046BDE8F08110B5044690F808
:10341000590068B101280ED0022811D0502072B690
:1034200080F31188BFF34F8FBFF36F8F62B6FEE753
:10343000206B00F03FFD2046BDE8104000F03ABD93
:1034400010BD000011484FF4705110B5420706D06E
:103450000E49C01D20F00700411AC1F570510C4CF7
:10346000002301440839A4F1100221F00701C4E946
:1034700000030C1A11604B600B60C0E900149460EB
:103480004FF000415460D16010BD0000D413012002
:1034900090000120144E4FF08058144CDFF85090EB
:1034A000A6F29C4712E000BF00F0CAFCF068C568B5
:1034B000281D00F067FC2069401E2061E068401E66
:1034C000E06000F0E1FC2846FFF79FFFE06800287D
:1034D000EAD138680128F9D9C9F80080BFF34F8FC5
:1034E000BFF36F8FF2E70000DC0B01202C000120FE
:1034F00004ED00E070B51D46049C51B1C4F80020F5
:10350000C4E90F010121204600F00AFF84F84C5065
:1035100070BD2460F4E72DE9F05F88469A4691007B
:103520001546DDE90B940A9EA5228346206BFDF724
:103530002BF8206B6FF0030101EB8501084420F0AC
:103540000707780709D0502072B680F31188BFF3BF
:103550004F8FBFF36F8F62B6FEE7B8F1000F4FF0E9
:1035600000050ED00020221818F8001082F8341040
:1035700018F8001011B1401C1028F4D384F84350FF
:1035800001E084F83450382E00D33726E662201D3F
:10359000C4E9136500F02DFC04F1180000F029FCCB
:1035A0006565C6F13800A06184F858505246246120
:1035B00059463846646200F06BFAB9F1000F20609A
:1035C00001D0C9F80040BDE8F09F000030B51149B6
:1035D00000E011460A688242FBD34B685C188442C3
:1035E00003D14468084623444B6043681D18954244
:1035F00009D1084C103C2468A24209D052681A44F0
:1036000042600A6812680260814200D0086030BDE2
:103610000460F9E79000012070B50D4D91424160C2
:103620004FF00004006106D88169D21A8A4206D29E
:10363000011D686807E09A4203D2994201D3012430
:1036400003E0011D286800F0D7FB204670BD000094
:103650006800012010B5044600F0F2FBA06B28B111
:103660005FF0000400F010FC204610BD0124F9E7D3
:1036700030B53E4D89B06FE00498002806DA059A0F
:10368000DDE9060190470498002865DB069C606927
:1036900010B1201D00F076FB03A800F0DBF8024615
:1036A00004980A2858D2DFE800F00505052F324BB0
:1036B00005052F3294F8280040F0010084F8280016
:1036C000A06905990B4601442046FFF7A5FF60B3AA
:1036D000216A2046884794F8280040073CD50020FE
:1036E000009005980023A16942181946204601F070
:1036F0004DFAD0B9502072B680F31188BFF34F8FC6
:10370000BFF36F8F62B6FEE794F8280020E094F8CC
:10371000280040F0010084F828000598A06128B135
:10372000811813462046FFF777FF15E0502072B648
:1037300080F31188BFF34F8FBFF36F8F62B6FEE740
:1037400094F82800810703D4204600F0B3FB03E07F
:1037500020F0010084F82800A868002204A900F0E5
:1037600049FF002888D109B030BD00006800012061
:103770002DE9FC410F46054600F0FAFC01A800F0D7
:1037800069F80446019818B101F06AF9BDE8FC81B6
:10379000264EAFB170680068E0B30027B068291BFF
:1037A0003A4600F00DFC01F05BF90028EED120490B
:1037B0004FF080500860BFF34F8FBFF36F8FE5E786
:1037C000A542EBD801F04CF930682746C068C468C0
:1037D000201D00F0D7FA94F8280041071BD5A069F6
:1037E0002B463A4641192046FFF716FFB8B1002094
:1037F0002A46034601460090204601F0C7F970B9F9
:10380000502072B680F31188BFF34F8FBFF36F8FD4
:1038100062B6FEE707E020F0010084F82800216A84
:1038200020468847B2E70127B8E70000680001207A
:1038300004ED00E006484168096829B14168C9689B
:10384000C9684968016370474FF0FF31FAE700002B
:103850002C00012070B5054601F01AF8064E04460A
:103860003069844203D200F009F8012000E0002012
:1038700028602046346170BD68000120F8B51A4DFB
:1038800020E0C068C4680668201D00F07BFA216A49
:103890002046884794F82800400713D5A069304493
:1038A000B04206D92461211D6060286800F0A4FAA6
:1038B00008E000203246034601460090204601F011
:1038C00065F938B1286801680029DAD16968C5E965
:1038D0000010F8BD502072B680F31188BFF34F8FEF
:1038E000BFF36F8F62B6FEE7680001200A484068A8
:1038F000401C4FF0500072B680F3118805D0BFF322
:103900004F8FBFF36F8F62B6FEE7BFF34F8FBFF3EA
:103910006F8F62B6FEE7000098000120074C206818
:10392000016841B1C0680021D0F80000FFF720FF16
:10393000FFF79EFEF3E701210020F7E76800012072
:103940002DE9F041044600F07BFA94F9455004F16A
:10395000240609E0606A48B1304601F047F808B132
:1039600000F080FB6D1E6DB2002DF3DC4FF0FF36D2
:1039700084F8456000F088FA00F062FA94F9445047
:1039800004F1100709E0206948B1384601F02EF82B
:1039900008B100F067FB6D1E6DB2002DF3DC84F8FA
:1039A0004460BDE8F04100F06FBA00002DE9F0413D
:1039B0000027044600F0DCFB344E306808B9FFF7FE
:1039C00041FDF06804424FD1E4B30834600710D0E1
:1039D00004F00700C0F108000444600709D050203B
:1039E00072B680F31188BFF34F8FBFF36F8F62B64B
:1039F000FEE73CB37068844236D824481030014654
:103A00000D6801E028460D466968A14202D2296886
:103A10000029F7D131688D4226D0076829680160F6
:103A200008376868011B102911D9281942070AD0E4
:103A3000502072B680F31188BFF34F8FBFF36F8FA2
:103A400062B6FEE710E041606C60FFF7BFFD696899
:103A50007068401A7060B268904200D2B060002076
:103A6000F2681143C5E9000100F0FAFF780709D0B8
:103A7000502072B680F31188BFF34F8FBFF36F8F62
:103A800062B6FEE73846BDE8F08100008000012004
:103A900070B5041F094E231F4FF0807521F00101FE
:103AA00025601C1F1960A0F120010B1F26604438FF
:103AB0000A606FF002051D6070BD0000ED3800085F
:103AC00010B50D4C207B01280AD002280CD0032809
:103AD0000ED0042803D1FEF7EFFB0120207310BDA8
:103AE000FEF70CFC0220F9E7FEF796FB0320F5E752
:103AF000FEF7BEFB0420F1E741010120002202484D
:103B00000121FDF78EBA00000008024000220248A1
:103B10000221FDF786BA000000140240002202488C
:103B20000421FDF77EBA0000001402400022024882
:103B30000821FDF776BA0000001402400022024876
:103B40001021FDF76EBA0000001402400022024866
:103B50002021FDF766BA000000140240002202484E
:103B60004021FDF75EBA0000001402400022024826
:103B70008021FDF756BA00000014024002480022DE
:103B80004FF48071FDF74DBA001402400248002244
:103B90004FF40071FDF745BA0014024000220248BC
:103BA0000221FDF73EBA0000000802400022024850
:103BB0000421FDF736BA0000000802400022024846
:103BC0000821FDF72EBA000000080240002202483A
:103BD0001021FDF726BA000000080240002202482A
:103BE0002021FDF71EBA0000000802400022024812
:103BF0004021FDF716BA00000008024002480022EA
:103C00004FF48071FDF70DBA00080240002202480F
:103C10000121FDF706BA0000001402402DE9F04131
:103C20000F4C0D4607461646201D217850F82100FE
:103C300080472846FFF734FA217804F14C0050F809
:103C400021008047A81BFFF72BFA2078401CC0B248
:103C50002070B84201D300202070BDE8F081000040
:103C6000AC000120012202481146FDF7DAB900003C
:103C700000080240012202480221FDF7D2B90000EB
:103C800000140240012202480421FDF7CAB90000D5
:103C900000140240012202480821FDF7C2B90000C9
:103CA00000140240012202481021FDF7BAB90000B9
:103CB00000140240012202482021FDF7B2B90000A1
:103CC00000140240012202484021FDF7AAB9000079
:103CD00000140240012202488021FDF7A2B9000031
:103CE00000140240012202481102FDF79AB90000B7
:103CF00000140240012202485102FDF792B900006F
:103D000000140240012202480221FDF78AB9000096
:103D100000080240012202480421FDF782B9000098
:103D200000080240012202480821FDF77AB900008C
:103D300000080240012202481021FDF772B900007C
:103D400000080240012202482021FDF76AB9000064
:103D500000080240012202484021FDF762B900003C
:103D600000080240012202481102FDF75AB9000082
:103D700000080240012202481146FDF752B9000036
:103D800000140240D0E9013201699A60D0E90123B0
:103D90005A604A68824201D182684A600022026108
:103DA0000868401E086008687047000010B5044CA1
:103DB0008023046004F15C000860136010BD000003
:103DC0001C0D012010B5044C4FF48073046004F105
:103DD0005C000860136010BD780F01204FF0FF33C6
:103DE00000F108010022C0E901130260C160016115
:103DF000704700210161704730B50B685A1C02D032
:103E000000F1080202E0026904E0224654682568D5
:103E10009D42FAD953684B6099608A60516008618D
:103E20000168491C016030BD42684A6093688B603C
:103E300093685960916008610168491C016070478E
:103E4000502072B680F31188BFF34F8FBFF36F8F8E
:103E50000B4962B64868401C486001280ED10948E9
:103E6000006810F0FF0F09D0502072B680F311885F
:103E7000BFF34F8FBFF36F8F62B6FEE7704700004E
:103E80009800012004ED00E00949486828B1401E6F
:103E9000486001D180F311887047502072B680F3DA
:103EA0001188BFF34F8FBFF36F8F62B6FEE700003C
:103EB0009800012070B500282BD0164DA0F1080401
:103EC0006068E968084209D1502072B680F3118811
:103ED000BFF34F8FBFF36F8F62B6FEE722684AB120
:103EE000502072B680F31188BFF34F8FBFF36F8FEE
:103EF00062B6FEE78843606000F03AF9606869687E
:103F0000084468602046FFF761FBBDE8704000F0A0
:103F1000A7BD70BD800001204FF0E02000210161AD
:103F20004FF47A728161072303490968B1FBF2F10A
:103F3000491E4161036170472800012010B5FCF75C
:103F400011FA1349102810D300F1E0200A7890F8F4
:103F5000F003904209D2502072B680F31188BFF36B
:103F60004F8FBFF36F8F62B6FEE70A48896800681B
:103F700000F4E060884209D9502072B680F31188BD
:103F8000BFF34F8FBFF36F8F62B6FEE710BD000027
:103F9000980001200CED00E0084B5FF0000210B526
:103FA00053F832401CB1521C082AF9D310BD03EB60
:103FB000C20443F83210606010BD00000007012009
:103FC00070B515460E460446FFF73AFF94F94410C3
:103FD0000020491C01D184F8440094F94510491C83
:103FE00001D184F84500FFF74FFFA06B28B904F119
:103FF00024002A46314600F055F82046BDE87040BE
:10400000FFF79EBC020010B516D01048806B48B177
:10401000502072B680F31188BFF34F8FBFF36F8FBC
:1040200062B6FEE700F0A4F800211046FFF7E2F8C0
:1040300000F016FD002807D105494FF080500860B8
:10404000BFF34F8FBFF36F8F10BD00002C00012016
:1040500004ED00E002498A6A0260496941607047E4
:104060002C00012001490120486270472C000120EA
:1040700010B50C4650B10A4909681831FFF7BCFE6B
:104080002046BDE810400121FFF7B4B8502072B6B9
:1040900080F31188BFF34F8FBFF36F8F62B6FEE7D7
:1040A0002C00012070B514460D4668B10B49096813
:1040B0001831FFF7B9FE0CB14FF0FF352146284605
:1040C000BDE87040FFF796B8502072B680F31188B3
:1040D000BFF34F8FBFF36F8F62B6FEE72C00012056
:1040E00030B587B0002405AA04A9039403A804945A
:1040F000FFF75CFEDDE9030100940023CDE9011028
:10410000194817A1059A00F086FB184D002868632E
:1041100023D000F009FD01280BD0401C1DD15020F8
:1041200072B680F31188BFF34F8FBFF36F8F62B603
:10413000FEE7502072B680F31188BFF34F8FBFF3B4
:104140006F8F62B601214FF0FF302863E9616C6127
:1041500007B0BDE8304000F047B807B030BD000000
:1041600049444C4500000000953400082C00012013
:104170000248816B491C8163704700002C000120BC
:10418000174810B5816B11B10121416210BD0021AA
:104190004162144A816901E0B9B1491E01EB810312
:1041A00052F82330002BF7D001EB810302EB83029E
:1041B00002F1080453685B685360A34201D15B6855
:1041C0005360DA680260816110BD502072B680F3DE
:1041D0001188BFF34F8FBFF36F8F62B6FEE7000009
:1041E0002C000120400701202B49FF201CB50A7834
:1041F0000192087008788DF800009DF800209DF865
:10420000000002F0F002824209D0502072B680F322
:104210001188BFF34F8FBFF36F8F62B6FEE79DF833
:10422000002007201D4C02F050022270A06005E023
:104230009DF8002052008DF80020401E9DF80020BF
:104240001206F5D40328A06009D0502072B680F37E
:104250001188BFF34F8FBFF36F8F62B6FEE74FF445
:104260004070A060019808700D48016841F4700129
:104270000160016841F070410160FFF74DFE0020D0
:104280006060FCF735F80748016841F04041016083
:10429000FCF71AF800201CBD00E400E098000120A3
:1042A00020ED00E034EF00E0F8B5069D18B163B1F1
:1042B000FAB1A1B128E0502072B680F31188BFF3A3
:1042C0004F8FBFF36F8F62B6FEE7502072B680F358
:1042D0001188BFF34F8FBFF36F8F62B6FEE7502098
:1042E00072B680F31188BFF34F8FBFF36F8F62B642
:1042F000FEE749B1502072B680F31188BFF34F8FAB
:10430000BFF36F8F62B6FEE750241C46012683F888
:10431000466000932B46FFF7EDF82046F8BD0000FD
:104320002DE9F04704008A4629D0FFF789FD21686E
:104330000025D4E90F23D4F840C004F1100810463A
:104340000E46401E4FF0FF3902FB031200FB0C101B
:10435000BAF1000FA563666084F8449084F8459034
:10436000C4E9022015D04046FFF738FD04F12400CF
:10437000FFF734FDFFF788FD0120BDE8F0875020EE
:1043800072B680F31188BFF34F8FBFF36F8F62B6A1
:10439000FEE720690028EDD0404600F027FB00280A
:1043A000E8D004494FF080500860BFF34F8FBFF34F
:1043B0006F8FDFE704ED00E02DE9FF4704001D46A5
:1043C00082B08A464FF0000803D0BAF1000F0AD03D
:1043D00015E0502072B680F31188BFF34F8FBFF302
:1043E0006F8F62B6FEE7206C48B1502072B680F342
:1043F0001188BFF34F8FBFF36F8F62B6FEE7022DB8
:104400000CD1E06B012809D0502072B680F31188DE
:10441000BFF34F8FBFF36F8F62B6FEE700F02AFA4B
:10442000404F4FF080564FF0000958B9049848B1FA
:10443000502072B680F31188BFF34F8FBFF36F8F98
:1044400062B6FEE7FFF7FCFCA06BE16B884207D386
:10445000022D05D00498D0B1B8F1000F1AD01EE09B
:104460002A4651462046FEF79AFF616A19B104F1C7
:10447000240000F0BBFA20B13E60BFF34F8FBFF3C2
:104480006F8FFFF701FD012006B0BDE8F087FFF751
:10449000FBFC22E06846FFF7DDFD4FF00108FFF767
:1044A000F3FCFFF765FEFFF7CBFC94F94400401CDA
:1044B00001D184F8449094F94500401C01D184F85E
:1044C0004590FFF7E1FC04A9684600F037F930B1E8
:1044D0002046FFF735FA00F0C3FA0020D4E7FFF7D3
:1044E000AFFCA06BE16B884213D1FFF7CDFC0499C0
:1044F00004F11000FFF7BCFD2046FFF721FA00F0A1
:10450000AFFA00289ED13E60BFF34F8FBFF36F8F8D
:1045100098E7FFF7B9FC2046FFF712FA00F0A0FA7F
:1045200090E7000004ED00E02DE9F04704001F468D
:104530009046894603D0B9F1000F0AD015E050200B
:1045400072B680F31188BFF34F8FBFF36F8F62B6DF
:10455000FEE7206C48B1502072B680F31188BFF39B
:104560004F8FBFF36F8F62B6FEE7022F0CD1E06B67
:10457000012809D0502072B680F31188BFF34F8F05
:10458000BFF36F8F62B6FEE7FFF7D8FC5020EFF362
:10459000118672B680F31188BFF34F8FBFF36F8F10
:1045A00062B6A06BE16B884206D3022F04D00020D4
:1045B00086F31188BDE8F08794F945503A4649469C
:1045C0002046FEF7ECFE681C04D06D1C84F84550B4
:1045D0000120EDE7606A0028FAD004F1240000F021
:1045E00005FA0028F4D0B8F1000FF1D00121C8F885
:1045F0000010EDE72DE9F74704008A4683B04FF03D
:10460000000603D0BAF1000F0AD015E0502072B6B0
:1046100080F31188BFF34F8FBFF36F8F62B6FEE751
:10462000206C48B1502072B680F31188BFF34F8FD1
:10463000BFF36F8F62B6FEE700F01CF9DFF8F88079
:104640004FF080574FF0000958B9059848B15020F5
:1046500072B680F31188BFF34F8FBFF36F8F62B6CE
:10466000FEE7FFF7EDFBA56BC5B151462046FEF70F
:1046700083FE6D1EA563206950B104F1100000F0A7
:10468000B5F928B1C8F80070BFF34F8FBFF36F8F33
:10469000FFF7FAFB012006B0BDE8F087059808B1E6
:1046A0001EB106E0FFF7F0FB27E06846FFF7D2FCFB
:1046B0000126FFF7E9FBFFF75BFDFFF7C1FB94F96C
:1046C0004400401C01D184F8449094F94500401CFA
:1046D00001D184F84590FFF7D7FB05A9684600F0A3
:1046E0002DF8002820460AD0FFF72AF900F0B8F983
:1046F0002046FEF7AFFF0028B3D00020CBE7FEF73F
:10470000A9FF90B1059904F12400FFF7B1FC204600
:10471000FFF716F900F0A4F90028A2D1C8F800703C
:10472000BFF34F8FBFF36F8F9BE72046FFF708F96A
:1047300000F096F995E7000004ED00E02DE9F04166
:1047400005000C4612D0DCB1FFF77AFB1A4E206848
:104750007269471C6B68A2EB03011BD02F68B66A15
:10476000B74219D0934217D8012520E0502072B6E5
:1047700080F31188BFF34F8FBFF36F8F62B6FEE7F0
:10478000502072B680F31188BFF34F8FBFF36F8F45
:1047900062B6FEE700250AE0884205D9401A20608B
:1047A0002846FFF757FCF5E7002020600125FFF7BA
:1047B0006BFB2846BDE8F0812C0001202DE9FF5F4E
:1047C000994616468A4683469000DDE90E87FFF734
:1047D000EDF805001CD05C20FFF7E8F8040014D0C9
:1047E0000020256384F859004B46CDE90087CDE9C8
:1047F0000240324651465846FEF78DFE2046FEF7EF
:1048000027FD012004B0BDE8F09F2846FFF752FBCA
:104810004FF0FF30F6E7F0B585B0DDE90B740A9D87
:10482000A7B1ECB15C262763022684F85960002703
:1048300003970DF1100C0095CDE901C4FEF76BFE56
:104840002046FEF705FD049805B0F0BD502072B675
:1048500080F31188BFF34F8FBFF36F8F62B6FEE70F
:10486000502072B680F31188BFF34F8FBFF36F8F64
:1048700062B6FEE70548C16919B1806B18B1002026
:104880007047012070470220704700002C00012073
:1048900001484069704700002C0001202DE9F041DB
:1048A0002F4CA06B002740B1206A401C2062606A38
:1048B00000B101273846BDE8F0816669761C666163
:1048C00015D16068006848B1502072B680F3118835
:1048D000BFF34F8FBFF36F8F62B6FEE76068A168CA
:1048E0006160A060A06A401CA062FEF7A3FFDFF831
:1048F0007480206B864209D36068006880B160686C
:10490000C068C568686886420DD220632068C06AA6
:1049100000EB800158F821000128C8D90127C6E71B
:104920004FF0FF30F1E7281DFFF72CFAA86A18B105
:1049300005F11800FFF726FAE86AA169884200D954
:10494000A06100EB800108EB8100291DFFF76CFAE4
:104950002068E96AC06A8142CED30127CCE7000013
:104960002C0001204007012070B504464FF00001E3
:10497000B0B31C4D2868844209D0502072B680F331
:104980001188BFF34F8FBFF36F8F62B6FEE7206DC4
:1049900038B1E36C401EE26A20659A4220D050B1E3
:1049A0001EE0502072B680F31188BFF34F8FBFF323
:1049B0006F8F62B6FEE7201DFFF7E4F9E06CC0F1EF
:1049C0003801A161E062A969884200D9A86100EBC1
:1049D0008000054901EB8000211DFFF725FA012128
:1049E000084670BD2C0001204007012070B5C0684A
:1049F000C46854B104F118000646FFF7C3F9154D19
:104A0000A86B60B11448314617E0502072B680F3AD
:104A10001188BFF34F8FBFF36F8F62B6FEE7201D83
:104A2000FFF7B0F9E06AA969884200D9A86100EBF4
:104A300080000A4901EB8000211DFFF7F5F9E06ACB
:104A40002968C96A884203D901216962084670BD94
:104A5000002070BD2C000120C80B01204007012060
:104A60002DE9F0472D4DA86B0024274638B1FFF7FC
:104A7000E7F9A86B401EA863A86B50B149E050202D
:104A800072B680F31188BFF34F8FBFF36F8F62B69A
:104A9000FEE7234E01202969D9B3A6F59169804626
:104AA0003068E0B1F068C46804F11800FFF76AF9F3
:104AB000201DFFF767F9E06AA969884200D9A8615B
:104AC00000EB800109EB8100211DFFF7ADF9E06AE1
:104AD0002968C96A8842E3D3C5F82480E0E70CB1AD
:104AE000FEF7A8FE2C6A4CB14FEA0806FFF7D6FE87
:104AF00000B16E62641EF9D100202862686A40B17C
:104B0000084901274FF080500860BFF34F8FBFF373
:104B10006F8FFFF7B9F93846BDE8F0872C00012008
:104B2000C80B012004ED00E010B586B0FEF7F8FBDD
:104B3000124CA068B8B10020039005AA049004A903
:104B400003A8FFF73FF9DDE90321022000238DE8E8
:104B500007000D480AA1059AFFF75DFEE06010B15D
:104B600006B0012010BD502072B680F31188BFF34B
:104B70004F8FBFF36F8F62B6FEE700006800012021
:104B8000546D7220537663001D3900082DE9FF41F2
:104B90001E46134602004FF000000A9D16D0154C29
:104BA000A768002F0FD006290292CDE9001319DA69
:104BB000FFF760FE02284FF0000311D00022A0682A
:104BC0006946FFF7F9FB04B0BDE8F081502072B6EA
:104BD00080F31188BFF34F8FBFF36F8F62B6FEE78C
:104BE0002A46ECE70023324669463846FFF79CFC2C
:104BF000E9E70000680001204FF04070E1EE100A84
:104C0000704700009C4C00080000000000000000FD
:104C1000000000000000000000020000180000007A
:104C20000000000000000000904C000800000000A0
:104C3000000000000000000000000000400600002E
:104C4000190000000000000000000000884C00086F
:104C50000000000000000000000000000000000054
:104C600040060000130000000000000000000000EB
:104C7000000000000000000001020304060708090C
:104C800000000000010203044D61696E46534D00AF
:104C9000427574746F6E5461736B00006465666175
:104CA000756C745461736B00C84C000800000120DF
:104CB0005001000004020008544D0008500101207A
:104CC000E8AE000060020008011C3201821003718E
:104CD00024F41AAA0141120565E803E80313653CB0
:104CE0001408053D1B0815041A25041A35041A4535
:104CF000041A55041A65042A750419241A85041A1D
:104D000095041AA5041AB5041AC5041AD5041AE59F
:104D1000041AF50413FD3A14089D3B1B08AD041A50
:104D2000BD041ACD041ADD041AED041AFD041A0D8F
:104D3000241A0D081A1D041A2D041A3D041A4D04D4
:104D40001A5D041A6D041A7D041A8D04511A0101AA
:044D500039082100FD
:04000005080001C925
:00000001FF
